{
  "contractName": "Dex",
  "abi": [
    {
      "inputs": [],
      "stateMutability": "nonpayable",
      "type": "constructor"
    },
    {
      "anonymous": false,
      "inputs": [
        {
          "indexed": false,
          "internalType": "uint256",
          "name": "tradeId",
          "type": "uint256"
        },
        {
          "indexed": false,
          "internalType": "uint256",
          "name": "orderId",
          "type": "uint256"
        },
        {
          "indexed": true,
          "internalType": "bytes32",
          "name": "ticker",
          "type": "bytes32"
        },
        {
          "indexed": true,
          "internalType": "address",
          "name": "trader1",
          "type": "address"
        },
        {
          "indexed": true,
          "internalType": "address",
          "name": "trader2",
          "type": "address"
        },
        {
          "indexed": false,
          "internalType": "uint256",
          "name": "amount",
          "type": "uint256"
        },
        {
          "indexed": false,
          "internalType": "uint256",
          "name": "price",
          "type": "uint256"
        },
        {
          "indexed": false,
          "internalType": "uint256",
          "name": "date",
          "type": "uint256"
        }
      ],
      "name": "NewTrade",
      "type": "event"
    },
    {
      "inputs": [],
      "name": "admin",
      "outputs": [
        {
          "internalType": "address",
          "name": "",
          "type": "address"
        }
      ],
      "stateMutability": "view",
      "type": "function",
      "constant": true
    },
    {
      "inputs": [],
      "name": "nextOrderId",
      "outputs": [
        {
          "internalType": "uint256",
          "name": "",
          "type": "uint256"
        }
      ],
      "stateMutability": "view",
      "type": "function",
      "constant": true
    },
    {
      "inputs": [],
      "name": "nextTradeId",
      "outputs": [
        {
          "internalType": "uint256",
          "name": "",
          "type": "uint256"
        }
      ],
      "stateMutability": "view",
      "type": "function",
      "constant": true
    },
    {
      "inputs": [
        {
          "internalType": "bytes32",
          "name": "",
          "type": "bytes32"
        },
        {
          "internalType": "uint256",
          "name": "",
          "type": "uint256"
        },
        {
          "internalType": "uint256",
          "name": "",
          "type": "uint256"
        }
      ],
      "name": "orderBook",
      "outputs": [
        {
          "internalType": "uint256",
          "name": "id",
          "type": "uint256"
        },
        {
          "internalType": "address",
          "name": "trader",
          "type": "address"
        },
        {
          "internalType": "enum Dex.Side",
          "name": "side",
          "type": "uint8"
        },
        {
          "internalType": "bytes32",
          "name": "ticker",
          "type": "bytes32"
        },
        {
          "internalType": "uint256",
          "name": "amount",
          "type": "uint256"
        },
        {
          "internalType": "uint256",
          "name": "filled",
          "type": "uint256"
        },
        {
          "internalType": "uint256",
          "name": "price",
          "type": "uint256"
        },
        {
          "internalType": "uint256",
          "name": "date",
          "type": "uint256"
        }
      ],
      "stateMutability": "view",
      "type": "function",
      "constant": true
    },
    {
      "inputs": [
        {
          "internalType": "uint256",
          "name": "",
          "type": "uint256"
        }
      ],
      "name": "tokenList",
      "outputs": [
        {
          "internalType": "bytes32",
          "name": "",
          "type": "bytes32"
        }
      ],
      "stateMutability": "view",
      "type": "function",
      "constant": true
    },
    {
      "inputs": [
        {
          "internalType": "bytes32",
          "name": "",
          "type": "bytes32"
        }
      ],
      "name": "tokens",
      "outputs": [
        {
          "internalType": "bytes32",
          "name": "ticker",
          "type": "bytes32"
        },
        {
          "internalType": "address",
          "name": "tokenAddress",
          "type": "address"
        }
      ],
      "stateMutability": "view",
      "type": "function",
      "constant": true
    },
    {
      "inputs": [
        {
          "internalType": "address",
          "name": "",
          "type": "address"
        },
        {
          "internalType": "bytes32",
          "name": "",
          "type": "bytes32"
        }
      ],
      "name": "traderBalances",
      "outputs": [
        {
          "internalType": "uint256",
          "name": "",
          "type": "uint256"
        }
      ],
      "stateMutability": "view",
      "type": "function",
      "constant": true
    },
    {
      "inputs": [
        {
          "internalType": "bytes32",
          "name": "ticker",
          "type": "bytes32"
        },
        {
          "internalType": "address",
          "name": "tokenAddress",
          "type": "address"
        }
      ],
      "name": "addToken",
      "outputs": [],
      "stateMutability": "nonpayable",
      "type": "function"
    },
    {
      "inputs": [
        {
          "internalType": "uint256",
          "name": "amount",
          "type": "uint256"
        },
        {
          "internalType": "bytes32",
          "name": "ticker",
          "type": "bytes32"
        }
      ],
      "name": "deposit",
      "outputs": [],
      "stateMutability": "nonpayable",
      "type": "function"
    },
    {
      "inputs": [
        {
          "internalType": "uint256",
          "name": "amount",
          "type": "uint256"
        },
        {
          "internalType": "bytes32",
          "name": "ticker",
          "type": "bytes32"
        }
      ],
      "name": "withdraw",
      "outputs": [],
      "stateMutability": "nonpayable",
      "type": "function"
    },
    {
      "inputs": [
        {
          "internalType": "bytes32",
          "name": "ticker",
          "type": "bytes32"
        },
        {
          "internalType": "uint256",
          "name": "amount",
          "type": "uint256"
        },
        {
          "internalType": "uint256",
          "name": "price",
          "type": "uint256"
        },
        {
          "internalType": "enum Dex.Side",
          "name": "side",
          "type": "uint8"
        }
      ],
      "name": "createLimitOrder",
      "outputs": [],
      "stateMutability": "nonpayable",
      "type": "function"
    },
    {
      "inputs": [
        {
          "internalType": "bytes32",
          "name": "ticker",
          "type": "bytes32"
        },
        {
          "internalType": "uint256",
          "name": "amount",
          "type": "uint256"
        },
        {
          "internalType": "enum Dex.Side",
          "name": "side",
          "type": "uint8"
        }
      ],
      "name": "createMarketOrder",
      "outputs": [],
      "stateMutability": "nonpayable",
      "type": "function"
    },
    {
      "inputs": [
        {
          "internalType": "bytes32",
          "name": "ticker",
          "type": "bytes32"
        },
        {
          "internalType": "enum Dex.Side",
          "name": "side",
          "type": "uint8"
        }
      ],
      "name": "getOrders",
      "outputs": [
        {
          "components": [
            {
              "internalType": "uint256",
              "name": "id",
              "type": "uint256"
            },
            {
              "internalType": "address",
              "name": "trader",
              "type": "address"
            },
            {
              "internalType": "enum Dex.Side",
              "name": "side",
              "type": "uint8"
            },
            {
              "internalType": "bytes32",
              "name": "ticker",
              "type": "bytes32"
            },
            {
              "internalType": "uint256",
              "name": "amount",
              "type": "uint256"
            },
            {
              "internalType": "uint256",
              "name": "filled",
              "type": "uint256"
            },
            {
              "internalType": "uint256",
              "name": "price",
              "type": "uint256"
            },
            {
              "internalType": "uint256",
              "name": "date",
              "type": "uint256"
            }
          ],
          "internalType": "struct Dex.Order[]",
          "name": "",
          "type": "tuple[]"
        }
      ],
      "stateMutability": "view",
      "type": "function",
      "constant": true
    },
    {
      "inputs": [],
      "name": "getTokens",
      "outputs": [
        {
          "components": [
            {
              "internalType": "bytes32",
              "name": "ticker",
              "type": "bytes32"
            },
            {
              "internalType": "address",
              "name": "tokenAddress",
              "type": "address"
            }
          ],
          "internalType": "struct Dex.Token[]",
          "name": "",
          "type": "tuple[]"
        }
      ],
      "stateMutability": "view",
      "type": "function",
      "constant": true
    }
  ],
  "bytecode": "0x608060405234801561001057600080fd5b5033600460006101000a81548173ffffffffffffffffffffffffffffffffffffffff021916908373ffffffffffffffffffffffffffffffffffffffff1602179055506135c0806100616000396000f3fe608060405234801561001057600080fd5b50600436106100ea5760003560e01c80639776aacf1161008c578063aa6ca80811610066578063aa6ca80814610277578063c9630cb014610295578063d9c0c950146102b1578063f851a440146102cd576100ea565b80639776aacf1461020f5780639ead72221461022b578063a8d2021a1461025b576100ea565b806372ce957e116100c857806372ce957e146101745780637f2c6246146101a4578063813ad083146101c0578063904194a3146101de576100ea565b80630bb431b6146100ef5780632a58b3301461012657806346e9658b14610144575b600080fd5b610109600480360381019061010491906128ba565b6102eb565b60405161011d9897969594939291906129e3565b60405180910390f35b61012e61038a565b60405161013b9190612a61565b60405180910390f35b61015e60048036038101906101599190612aa1565b610390565b60405161016b9190612c6f565b60405180910390f35b61018e60048036038101906101899190612cbd565b6104f4565b60405161019b9190612a61565b60405180910390f35b6101be60048036038101906101b99190612cfd565b610519565b005b6101c8611700565b6040516101d59190612a61565b60405180910390f35b6101f860048036038101906101f39190612d50565b611706565b604051610206929190612d7d565b60405180910390f35b61022960048036038101906102249190612da6565b61174a565b005b61024560048036038101906102409190612de6565b611898565b6040516102529190612e13565b60405180910390f35b61027560048036038101906102709190612e2e565b6118bc565b005b61027f611b74565b60405161028c9190612f4c565b60405180910390f35b6102af60048036038101906102aa9190612e2e565b611ccd565b005b6102cb60048036038101906102c69190612f6e565b611ef4565b005b6102d56127ae565b6040516102e29190612fd5565b60405180910390f35b6003602052826000526040600020602052816000526040600020818154811061031357600080fd5b906000526020600020906007020160009250925050508060000154908060010160009054906101000a900473ffffffffffffffffffffffffffffffffffffffff16908060010160149054906101000a900460ff16908060020154908060030154908060040154908060050154908060060154905088565b60055481565b60606003600084815260200190815260200160002060008360018111156103ba576103b961295d565b5b8152602001908152602001600020805480602002602001604051908101604052809291908181526020016000905b828210156104e8578382906000526020600020906007020160405180610100016040529081600082015481526020016001820160009054906101000a900473ffffffffffffffffffffffffffffffffffffffff1673ffffffffffffffffffffffffffffffffffffffff1673ffffffffffffffffffffffffffffffffffffffff1681526020016001820160149054906101000a900460ff1660018111156104915761049061295d565b5b60018111156104a3576104a261295d565b5b815260200160028201548152602001600382015481526020016004820154815260200160058201548152602001600682015481525050815260200190600101906103e8565b50505050905092915050565b6002602052816000526040600020602052806000526040600020600091509150505481565b82600073ffffffffffffffffffffffffffffffffffffffff1660008083815260200190815260200160002060010160009054906101000a900473ffffffffffffffffffffffffffffffffffffffff1673ffffffffffffffffffffffffffffffffffffffff1614156105bf576040517f08c379a00000000000000000000000000000000000000000000000000000000081526004016105b69061304d565b60405180910390fd5b837f4441490000000000000000000000000000000000000000000000000000000000811415610623576040517f08c379a000000000000000000000000000000000000000000000000000000000815260040161061a906130b9565b60405180910390fd5b6001808111156106365761063561295d565b5b8360018111156106495761064861295d565b5b14156106e35783600260003373ffffffffffffffffffffffffffffffffffffffff1673ffffffffffffffffffffffffffffffffffffffff16815260200190815260200160002060008781526020019081526020016000205410156106e2576040517f08c379a00000000000000000000000000000000000000000000000000000000081526004016106d990613125565b60405180910390fd5b5b600060036000878152602001908152602001600020600080600181111561070d5761070c61295d565b5b8660018111156107205761071f61295d565b5b1461072c57600061072f565b60015b60018111156107415761074061295d565b5b815260200190815260200160002090506000808690505b82805490508210801561076b5750600081115b1561147f5760006107cd84848154811061078857610787613145565b5b9060005260206000209060070201600401548585815481106107ad576107ac613145565b5b9060005260206000209060070201600301546127d490919063ffffffff16565b905060008183116107de57826107e0565b815b90506107f581846127d490919063ffffffff16565b925061082e8186868154811061080e5761080d613145565b5b9060005260206000209060070201600401546127ea90919063ffffffff16565b85858154811061084157610840613145565b5b9060005260206000209060070201600401819055503373ffffffffffffffffffffffffffffffffffffffff168585815481106108805761087f613145565b5b906000526020600020906007020160010160009054906101000a900473ffffffffffffffffffffffffffffffffffffffff1673ffffffffffffffffffffffffffffffffffffffff168b7fdb0c486e680ba8026643e6a85f8d157b5e7bcd4b32b54d564542570a9eb20416600654898981548110610900576108ff613145565b5b906000526020600020906007020160000154868b8b8154811061092657610925613145565b5b9060005260206000209060070201600501544260405161094a959493929190613174565b60405180910390a46001808111156109655761096461295d565b5b8860018111156109785761097761295d565b5b1415610e57576109e181600260003373ffffffffffffffffffffffffffffffffffffffff1673ffffffffffffffffffffffffffffffffffffffff16815260200190815260200160002060008d8152602001908152602001600020546127d490919063ffffffff16565b600260003373ffffffffffffffffffffffffffffffffffffffff1673ffffffffffffffffffffffffffffffffffffffff16815260200190815260200160002060008c815260200190815260200160002081905550610aee610a6f868681548110610a4e57610a4d613145565b5b9060005260206000209060070201600501548361280090919063ffffffff16565b600260003373ffffffffffffffffffffffffffffffffffffffff1673ffffffffffffffffffffffffffffffffffffffff16815260200190815260200160002060007f44414900000000000000000000000000000000000000000000000000000000008152602001908152602001600020546127ea90919063ffffffff16565b600260003373ffffffffffffffffffffffffffffffffffffffff1673ffffffffffffffffffffffffffffffffffffffff16815260200190815260200160002060007f4441490000000000000000000000000000000000000000000000000000000000815260200190815260200160002081905550610c098160026000888881548110610b7d57610b7c613145565b5b906000526020600020906007020160010160009054906101000a900473ffffffffffffffffffffffffffffffffffffffff1673ffffffffffffffffffffffffffffffffffffffff1673ffffffffffffffffffffffffffffffffffffffff16815260200190815260200160002060008d8152602001908152602001600020546127ea90919063ffffffff16565b60026000878781548110610c2057610c1f613145565b5b906000526020600020906007020160010160009054906101000a900473ffffffffffffffffffffffffffffffffffffffff1673ffffffffffffffffffffffffffffffffffffffff1673ffffffffffffffffffffffffffffffffffffffff16815260200190815260200160002060008c815260200190815260200160002081905550610d9e610cdb868681548110610cba57610cb9613145565b5b9060005260206000209060070201600501548361280090919063ffffffff16565b60026000888881548110610cf257610cf1613145565b5b906000526020600020906007020160010160009054906101000a900473ffffffffffffffffffffffffffffffffffffffff1673ffffffffffffffffffffffffffffffffffffffff1673ffffffffffffffffffffffffffffffffffffffff16815260200190815260200160002060007f44414900000000000000000000000000000000000000000000000000000000008152602001908152602001600020546127d490919063ffffffff16565b60026000878781548110610db557610db4613145565b5b906000526020600020906007020160010160009054906101000a900473ffffffffffffffffffffffffffffffffffffffff1673ffffffffffffffffffffffffffffffffffffffff1673ffffffffffffffffffffffffffffffffffffffff16815260200190815260200160002060007f44414900000000000000000000000000000000000000000000000000000000008152602001908152602001600020819055505b60006001811115610e6b57610e6a61295d565b5b886001811115610e7e57610e7d61295d565b5b141561144657610ebb858581548110610e9a57610e99613145565b5b9060005260206000209060070201600501548261280090919063ffffffff16565b600260003373ffffffffffffffffffffffffffffffffffffffff1673ffffffffffffffffffffffffffffffffffffffff16815260200190815260200160002060007f44414900000000000000000000000000000000000000000000000000000000008152602001908152602001600020541015610f6d576040517f08c379a0000000000000000000000000000000000000000000000000000000008152600401610f6490613213565b60405180910390fd5b610fd081600260003373ffffffffffffffffffffffffffffffffffffffff1673ffffffffffffffffffffffffffffffffffffffff16815260200190815260200160002060008d8152602001908152602001600020546127ea90919063ffffffff16565b600260003373ffffffffffffffffffffffffffffffffffffffff1673ffffffffffffffffffffffffffffffffffffffff16815260200190815260200160002060008c8152602001908152602001600020819055506110dd61105e86868154811061103d5761103c613145565b5b9060005260206000209060070201600501548361280090919063ffffffff16565b600260003373ffffffffffffffffffffffffffffffffffffffff1673ffffffffffffffffffffffffffffffffffffffff16815260200190815260200160002060007f44414900000000000000000000000000000000000000000000000000000000008152602001908152602001600020546127d490919063ffffffff16565b600260003373ffffffffffffffffffffffffffffffffffffffff1673ffffffffffffffffffffffffffffffffffffffff16815260200190815260200160002060007f44414900000000000000000000000000000000000000000000000000000000008152602001908152602001600020819055506111f8816002600088888154811061116c5761116b613145565b5b906000526020600020906007020160010160009054906101000a900473ffffffffffffffffffffffffffffffffffffffff1673ffffffffffffffffffffffffffffffffffffffff1673ffffffffffffffffffffffffffffffffffffffff16815260200190815260200160002060008d8152602001908152602001600020546127d490919063ffffffff16565b6002600087878154811061120f5761120e613145565b5b906000526020600020906007020160010160009054906101000a900473ffffffffffffffffffffffffffffffffffffffff1673ffffffffffffffffffffffffffffffffffffffff1673ffffffffffffffffffffffffffffffffffffffff16815260200190815260200160002060008c81526020019081526020016000208190555061138d6112ca8686815481106112a9576112a8613145565b5b9060005260206000209060070201600501548361280090919063ffffffff16565b600260008888815481106112e1576112e0613145565b5b906000526020600020906007020160010160009054906101000a900473ffffffffffffffffffffffffffffffffffffffff1673ffffffffffffffffffffffffffffffffffffffff1673ffffffffffffffffffffffffffffffffffffffff16815260200190815260200160002060007f44414900000000000000000000000000000000000000000000000000000000008152602001908152602001600020546127ea90919063ffffffff16565b600260008787815481106113a4576113a3613145565b5b906000526020600020906007020160010160009054906101000a900473ffffffffffffffffffffffffffffffffffffffff1673ffffffffffffffffffffffffffffffffffffffff1673ffffffffffffffffffffffffffffffffffffffff16815260200190815260200160002060007f44414900000000000000000000000000000000000000000000000000000000008152602001908152602001600020819055505b61145c60016006546127ea90919063ffffffff16565b6006819055506114766001856127ea90919063ffffffff16565b93505050610758565b600091505b8280549050821080156114de57508282815481106114a5576114a4613145565b5b9060005260206000209060070201600301548383815481106114ca576114c9613145565b5b906000526020600020906007020160040154145b156116f65760008290505b600184805490506114fa9190613262565b811015611645578360018261150f9190613296565b815481106115205761151f613145565b5b906000526020600020906007020184828154811061154157611540613145565b5b9060005260206000209060070201600082015481600001556001820160009054906101000a900473ffffffffffffffffffffffffffffffffffffffff168160010160006101000a81548173ffffffffffffffffffffffffffffffffffffffff021916908373ffffffffffffffffffffffffffffffffffffffff1602179055506001820160149054906101000a900460ff168160010160146101000a81548160ff021916908360018111156115f8576115f761295d565b5b02179055506002820154816002015560038201548160030155600482015481600401556005820154816005015560068201548160060155905050808061163d906132ec565b9150506114e9565b508280548061165757611656613335565b5b60019003818190600052602060002090600702016000808201600090556001820160006101000a81549073ffffffffffffffffffffffffffffffffffffffff02191690556001820160146101000a81549060ff021916905560028201600090556003820160009055600482016000905560058201600090556006820160009055505090556116ef6001836127ea90919063ffffffff16565b9150611484565b5050505050505050565b60065481565b60006020528060005260406000206000915090508060000154908060010160009054906101000a900473ffffffffffffffffffffffffffffffffffffffff16905082565b600460009054906101000a900473ffffffffffffffffffffffffffffffffffffffff1673ffffffffffffffffffffffffffffffffffffffff163373ffffffffffffffffffffffffffffffffffffffff16146117da576040517f08c379a00000000000000000000000000000000000000000000000000000000081526004016117d1906133b0565b60405180910390fd5b60405180604001604052808381526020018273ffffffffffffffffffffffffffffffffffffffff168152506000808481526020019081526020016000206000820151816000015560208201518160010160006101000a81548173ffffffffffffffffffffffffffffffffffffffff021916908373ffffffffffffffffffffffffffffffffffffffff16021790555090505060018290806001815401808255809150506001900390600052602060002001600090919091909150555050565b600181815481106118a857600080fd5b906000526020600020016000915090505481565b80600073ffffffffffffffffffffffffffffffffffffffff1660008083815260200190815260200160002060010160009054906101000a900473ffffffffffffffffffffffffffffffffffffffff1673ffffffffffffffffffffffffffffffffffffffff161415611962576040517f08c379a00000000000000000000000000000000000000000000000000000000081526004016119599061304d565b60405180910390fd5b82600260003373ffffffffffffffffffffffffffffffffffffffff1673ffffffffffffffffffffffffffffffffffffffff16815260200190815260200160002060008481526020019081526020016000205410156119f5576040517f08c379a00000000000000000000000000000000000000000000000000000000081526004016119ec9061341c565b60405180910390fd5b611a5883600260003373ffffffffffffffffffffffffffffffffffffffff1673ffffffffffffffffffffffffffffffffffffffff1681526020019081526020016000206000858152602001908152602001600020546127d490919063ffffffff16565b600260003373ffffffffffffffffffffffffffffffffffffffff1673ffffffffffffffffffffffffffffffffffffffff16815260200190815260200160002060008481526020019081526020016000208190555060008083815260200190815260200160002060010160009054906101000a900473ffffffffffffffffffffffffffffffffffffffff1673ffffffffffffffffffffffffffffffffffffffff1663a9059cbb33856040518363ffffffff1660e01b8152600401611b1c92919061343c565b602060405180830381600087803b158015611b3657600080fd5b505af1158015611b4a573d6000803e3d6000fd5b505050506040513d601f19601f82011682018060405250810190611b6e919061349d565b50505050565b6060600060018054905067ffffffffffffffff811115611b9757611b966134ca565b5b604051908082528060200260200182016040528015611bd057816020015b611bbd612816565b815260200190600190039081611bb55790505b50905060005b600180549050811015611cc557604051806040016040528060008060018581548110611c0557611c04613145565b5b9060005260206000200154815260200190815260200160002060000154815260200160008060018581548110611c3e57611c3d613145565b5b9060005260206000200154815260200190815260200160002060010160009054906101000a900473ffffffffffffffffffffffffffffffffffffffff1673ffffffffffffffffffffffffffffffffffffffff16815250828281518110611ca757611ca6613145565b5b60200260200101819052508080611cbd906132ec565b915050611bd6565b508091505090565b80600073ffffffffffffffffffffffffffffffffffffffff1660008083815260200190815260200160002060010160009054906101000a900473ffffffffffffffffffffffffffffffffffffffff1673ffffffffffffffffffffffffffffffffffffffff161415611d73576040517f08c379a0000000000000000000000000000000000000000000000000000000008152600401611d6a9061304d565b60405180910390fd5b60008083815260200190815260200160002060010160009054906101000a900473ffffffffffffffffffffffffffffffffffffffff1673ffffffffffffffffffffffffffffffffffffffff166323b872dd3330866040518463ffffffff1660e01b8152600401611de5939291906134f9565b602060405180830381600087803b158015611dff57600080fd5b505af1158015611e13573d6000803e3d6000fd5b505050506040513d601f19601f82011682018060405250810190611e37919061349d565b50611e9b83600260003373ffffffffffffffffffffffffffffffffffffffff1673ffffffffffffffffffffffffffffffffffffffff1681526020019081526020016000206000858152602001908152602001600020546127ea90919063ffffffff16565b600260003373ffffffffffffffffffffffffffffffffffffffff1673ffffffffffffffffffffffffffffffffffffffff168152602001908152602001600020600084815260200190815260200160002081905550505050565b83600073ffffffffffffffffffffffffffffffffffffffff1660008083815260200190815260200160002060010160009054906101000a900473ffffffffffffffffffffffffffffffffffffffff1673ffffffffffffffffffffffffffffffffffffffff161415611f9a576040517f08c379a0000000000000000000000000000000000000000000000000000000008152600401611f919061304d565b60405180910390fd5b847f4441490000000000000000000000000000000000000000000000000000000000811415611ffe576040517f08c379a0000000000000000000000000000000000000000000000000000000008152600401611ff5906130b9565b60405180910390fd5b6001808111156120115761201061295d565b5b8360018111156120245761202361295d565b5b14156120c25784600260003373ffffffffffffffffffffffffffffffffffffffff1673ffffffffffffffffffffffffffffffffffffffff16815260200190815260200160002060008881526020019081526020016000205410156120bd576040517f08c379a00000000000000000000000000000000000000000000000000000000081526004016120b490613125565b60405180910390fd5b612188565b6120d5848661280090919063ffffffff16565b600260003373ffffffffffffffffffffffffffffffffffffffff1673ffffffffffffffffffffffffffffffffffffffff16815260200190815260200160002060007f44414900000000000000000000000000000000000000000000000000000000008152602001908152602001600020541015612187576040517f08c379a000000000000000000000000000000000000000000000000000000000815260040161217e90613213565b60405180910390fd5b5b60006003600088815260200190815260200160002060008560018111156121b2576121b161295d565b5b815260200190815260200160002090508060405180610100016040528060055481526020013373ffffffffffffffffffffffffffffffffffffffff1681526020018660018111156122065761220561295d565b5b8152602001898152602001888152602001600081526020018781526020014281525090806001815401808255809150506001900390600052602060002090600702016000909190919091506000820151816000015560208201518160010160006101000a81548173ffffffffffffffffffffffffffffffffffffffff021916908373ffffffffffffffffffffffffffffffffffffffff16021790555060408201518160010160146101000a81548160ff021916908360018111156122cd576122cc61295d565b5b0217905550606082015181600201556080820151816003015560a0820151816004015560c0820151816005015560e08201518160060155505060008082805490501161231a57600061232c565b6001828054905061232b9190613262565b5b90505b6000811115612788576000600181111561234c5761234b61295d565b5b85600181111561235f5761235e61295d565b5b1480156123bf575081818154811061237a57612379613145565b5b9060005260206000209060070201600501548260018361239a9190613262565b815481106123ab576123aa613145565b5b906000526020600020906007020160050154115b156123c957612788565b6001808111156123dc576123db61295d565b5b8560018111156123ef576123ee61295d565b5b14801561244f575081818154811061240a57612409613145565b5b9060005260206000209060070201600501548260018361242a9190613262565b8154811061243b5761243a613145565b5b906000526020600020906007020160050154105b1561245957612788565b6000826001836124699190613262565b8154811061247a57612479613145565b5b906000526020600020906007020160405180610100016040529081600082015481526020016001820160009054906101000a900473ffffffffffffffffffffffffffffffffffffffff1673ffffffffffffffffffffffffffffffffffffffff1673ffffffffffffffffffffffffffffffffffffffff1681526020016001820160149054906101000a900460ff1660018111156125195761251861295d565b5b600181111561252b5761252a61295d565b5b815260200160028201548152602001600382015481526020016004820154815260200160058201548152602001600682015481525050905082828154811061257657612575613145565b5b9060005260206000209060070201836001846125929190613262565b815481106125a3576125a2613145565b5b9060005260206000209060070201600082015481600001556001820160009054906101000a900473ffffffffffffffffffffffffffffffffffffffff168160010160006101000a81548173ffffffffffffffffffffffffffffffffffffffff021916908373ffffffffffffffffffffffffffffffffffffffff1602179055506001820160149054906101000a900460ff168160010160146101000a81548160ff0219169083600181111561265a5761265961295d565b5b02179055506002820154816002015560038201548160030155600482015481600401556005820154816005015560068201548160060155905050808383815481106126a8576126a7613145565b5b90600052602060002090600702016000820151816000015560208201518160010160006101000a81548173ffffffffffffffffffffffffffffffffffffffff021916908373ffffffffffffffffffffffffffffffffffffffff16021790555060408201518160010160146101000a81548160ff021916908360018111156127325761273161295d565b5b0217905550606082015181600201556080820151816003015560a0820151816004015560c0820151816005015560e082015181600601559050506127806001836127d490919063ffffffff16565b91505061232f565b61279e60016005546127ea90919063ffffffff16565b6005819055505050505050505050565b600460009054906101000a900473ffffffffffffffffffffffffffffffffffffffff1681565b600081836127e29190613262565b905092915050565b600081836127f89190613296565b905092915050565b6000818361280e9190613530565b905092915050565b604051806040016040528060008019168152602001600073ffffffffffffffffffffffffffffffffffffffff1681525090565b600080fd5b6000819050919050565b6128618161284e565b811461286c57600080fd5b50565b60008135905061287e81612858565b92915050565b6000819050919050565b61289781612884565b81146128a257600080fd5b50565b6000813590506128b48161288e565b92915050565b6000806000606084860312156128d3576128d2612849565b5b60006128e18682870161286f565b93505060206128f2868287016128a5565b9250506040612903868287016128a5565b9150509250925092565b61291681612884565b82525050565b600073ffffffffffffffffffffffffffffffffffffffff82169050919050565b60006129478261291c565b9050919050565b6129578161293c565b82525050565b7f4e487b7100000000000000000000000000000000000000000000000000000000600052602160045260246000fd5b6002811061299d5761299c61295d565b5b50565b60008190506129ae8261298c565b919050565b60006129be826129a0565b9050919050565b6129ce816129b3565b82525050565b6129dd8161284e565b82525050565b6000610100820190506129f9600083018b61290d565b612a06602083018a61294e565b612a1360408301896129c5565b612a2060608301886129d4565b612a2d608083018761290d565b612a3a60a083018661290d565b612a4760c083018561290d565b612a5460e083018461290d565b9998505050505050505050565b6000602082019050612a76600083018461290d565b92915050565b60028110612a8957600080fd5b50565b600081359050612a9b81612a7c565b92915050565b60008060408385031215612ab857612ab7612849565b5b6000612ac68582860161286f565b9250506020612ad785828601612a8c565b9150509250929050565b600081519050919050565b600082825260208201905092915050565b6000819050602082019050919050565b612b1681612884565b82525050565b612b258161293c565b82525050565b612b34816129b3565b82525050565b612b438161284e565b82525050565b61010082016000820151612b606000850182612b0d565b506020820151612b736020850182612b1c565b506040820151612b866040850182612b2b565b506060820151612b996060850182612b3a565b506080820151612bac6080850182612b0d565b5060a0820151612bbf60a0850182612b0d565b5060c0820151612bd260c0850182612b0d565b5060e0820151612be560e0850182612b0d565b50505050565b6000612bf78383612b49565b6101008301905092915050565b6000602082019050919050565b6000612c1c82612ae1565b612c268185612aec565b9350612c3183612afd565b8060005b83811015612c62578151612c498882612beb565b9750612c5483612c04565b925050600181019050612c35565b5085935050505092915050565b60006020820190508181036000830152612c898184612c11565b905092915050565b612c9a8161293c565b8114612ca557600080fd5b50565b600081359050612cb781612c91565b92915050565b60008060408385031215612cd457612cd3612849565b5b6000612ce285828601612ca8565b9250506020612cf38582860161286f565b9150509250929050565b600080600060608486031215612d1657612d15612849565b5b6000612d248682870161286f565b9350506020612d35868287016128a5565b9250506040612d4686828701612a8c565b9150509250925092565b600060208284031215612d6657612d65612849565b5b6000612d748482850161286f565b91505092915050565b6000604082019050612d9260008301856129d4565b612d9f602083018461294e565b9392505050565b60008060408385031215612dbd57612dbc612849565b5b6000612dcb8582860161286f565b9250506020612ddc85828601612ca8565b9150509250929050565b600060208284031215612dfc57612dfb612849565b5b6000612e0a848285016128a5565b91505092915050565b6000602082019050612e2860008301846129d4565b92915050565b60008060408385031215612e4557612e44612849565b5b6000612e53858286016128a5565b9250506020612e648582860161286f565b9150509250929050565b600081519050919050565b600082825260208201905092915050565b6000819050602082019050919050565b604082016000820151612eb06000850182612b3a565b506020820151612ec36020850182612b1c565b50505050565b6000612ed58383612e9a565b60408301905092915050565b6000602082019050919050565b6000612ef982612e6e565b612f038185612e79565b9350612f0e83612e8a565b8060005b83811015612f3f578151612f268882612ec9565b9750612f3183612ee1565b925050600181019050612f12565b5085935050505092915050565b60006020820190508181036000830152612f668184612eee565b905092915050565b60008060008060808587031215612f8857612f87612849565b5b6000612f968782880161286f565b9450506020612fa7878288016128a5565b9350506040612fb8878288016128a5565b9250506060612fc987828801612a8c565b91505092959194509250565b6000602082019050612fea600083018461294e565b92915050565b600082825260208201905092915050565b7f7468697320746f6b656e20646f6573206e6f7420657869737400000000000000600082015250565b6000613037601983612ff0565b915061304282613001565b602082019050919050565b600060208201905081810360008301526130668161302a565b9050919050565b7f63616e6e6f742074726164652044414900000000000000000000000000000000600082015250565b60006130a3601083612ff0565b91506130ae8261306d565b602082019050919050565b600060208201905081810360008301526130d281613096565b9050919050565b7f746f6b656e2062616c616e636520746f6f206c6f770000000000000000000000600082015250565b600061310f601583612ff0565b915061311a826130d9565b602082019050919050565b6000602082019050818103600083015261313e81613102565b9050919050565b7f4e487b7100000000000000000000000000000000000000000000000000000000600052603260045260246000fd5b600060a082019050613189600083018861290d565b613196602083018761290d565b6131a3604083018661290d565b6131b0606083018561290d565b6131bd608083018461290d565b9695505050505050565b7f6461692062616c616e636520746f6f206c6f7700000000000000000000000000600082015250565b60006131fd601383612ff0565b9150613208826131c7565b602082019050919050565b6000602082019050818103600083015261322c816131f0565b9050919050565b7f4e487b7100000000000000000000000000000000000000000000000000000000600052601160045260246000fd5b600061326d82612884565b915061327883612884565b92508282101561328b5761328a613233565b5b828203905092915050565b60006132a182612884565b91506132ac83612884565b9250827fffffffffffffffffffffffffffffffffffffffffffffffffffffffffffffffff038211156132e1576132e0613233565b5b828201905092915050565b60006132f782612884565b91507fffffffffffffffffffffffffffffffffffffffffffffffffffffffffffffffff82141561332a57613329613233565b5b600182019050919050565b7f4e487b7100000000000000000000000000000000000000000000000000000000600052603160045260246000fd5b7f6f6e6c792061646d696e00000000000000000000000000000000000000000000600082015250565b600061339a600a83612ff0565b91506133a582613364565b602082019050919050565b600060208201905081810360008301526133c98161338d565b9050919050565b7f62616c616e636520746f6f206c6f770000000000000000000000000000000000600082015250565b6000613406600f83612ff0565b9150613411826133d0565b602082019050919050565b60006020820190508181036000830152613435816133f9565b9050919050565b6000604082019050613451600083018561294e565b61345e602083018461290d565b9392505050565b60008115159050919050565b61347a81613465565b811461348557600080fd5b50565b60008151905061349781613471565b92915050565b6000602082840312156134b3576134b2612849565b5b60006134c184828501613488565b91505092915050565b7f4e487b7100000000000000000000000000000000000000000000000000000000600052604160045260246000fd5b600060608201905061350e600083018661294e565b61351b602083018561294e565b613528604083018461290d565b949350505050565b600061353b82612884565b915061354683612884565b9250817fffffffffffffffffffffffffffffffffffffffffffffffffffffffffffffffff048311821515161561357f5761357e613233565b5b82820290509291505056fea2646970667358221220f328bbc102d6a3acdff138732dc092eb64d8c76e249fd2d754dabc6dc85e5a9164736f6c63430008090033",
  "immutableReferences": {},
  "source": "// SPDX-License-Identifier: UNLICENSED\r\npragma solidity ^0.8.9;\r\nimport \"@openzeppelin/contracts/token/ERC20/IERC20.sol\";\r\nimport \"@openzeppelin/contracts/utils/math/SafeMath.sol\";\r\n\r\ncontract Dex {\r\n    using SafeMath for uint256;\r\n\r\n    enum Side {\r\n        BUY,\r\n        SELL\r\n    }\r\n\r\n    struct Token {\r\n        bytes32 ticker;\r\n        address tokenAddress;\r\n    }\r\n\r\n    struct Order {\r\n        uint256 id;\r\n        address trader;\r\n        Side side;\r\n        bytes32 ticker;\r\n        uint256 amount;\r\n        uint256 filled;\r\n        uint256 price;\r\n        uint256 date;\r\n    }\r\n\r\n    mapping(bytes32 => Token) public tokens;\r\n    bytes32[] public tokenList;\r\n    mapping(address => mapping(bytes32 => uint256)) public traderBalances;\r\n    mapping(bytes32 => mapping(uint256 => Order[])) public orderBook;\r\n    address public admin;\r\n    uint256 public nextOrderId;\r\n    uint256 public nextTradeId;\r\n    bytes32 constant DAI = bytes32(\"DAI\");\r\n\r\n    event NewTrade(\r\n        uint256 tradeId,\r\n        uint256 orderId,\r\n        bytes32 indexed ticker,\r\n        address indexed trader1,\r\n        address indexed trader2,\r\n        uint256 amount,\r\n        uint256 price,\r\n        uint256 date\r\n    );\r\n\r\n    constructor() {\r\n        admin = msg.sender;\r\n    }\r\n\r\n    function addToken(bytes32 ticker, address tokenAddress) external onlyAdmin {\r\n        tokens[ticker] = Token(ticker, tokenAddress);\r\n        tokenList.push(ticker);\r\n    }\r\n\r\n    function deposit(uint256 amount, bytes32 ticker)\r\n        external\r\n        tokenExist(ticker)\r\n    {\r\n        IERC20(tokens[ticker].tokenAddress).transferFrom(\r\n            msg.sender,\r\n            address(this),\r\n            amount\r\n        );\r\n        traderBalances[msg.sender][ticker] = traderBalances[msg.sender][ticker]\r\n            .add(amount);\r\n    }\r\n\r\n    function withdraw(uint256 amount, bytes32 ticker)\r\n        external\r\n        tokenExist(ticker)\r\n    {\r\n        require(\r\n            traderBalances[msg.sender][ticker] >= amount,\r\n            \"balance too low\"\r\n        );\r\n        traderBalances[msg.sender][ticker] = traderBalances[msg.sender][ticker]\r\n            .sub(amount);\r\n        IERC20(tokens[ticker].tokenAddress).transfer(msg.sender, amount);\r\n    }\r\n\r\n    function createLimitOrder(\r\n        bytes32 ticker,\r\n        uint256 amount,\r\n        uint256 price,\r\n        Side side\r\n    ) external tokenExist(ticker) tokenIsNotDai(ticker) {\r\n        if (side == Side.SELL) {\r\n            require(\r\n                traderBalances[msg.sender][ticker] >= amount,\r\n                \"token balance too low\"\r\n            );\r\n        } else {\r\n            require(\r\n                traderBalances[msg.sender][DAI] >= amount.mul(price),\r\n                \"dai balance too low\"\r\n            );\r\n        }\r\n        Order[] storage orders = orderBook[ticker][uint256(side)];\r\n        orders.push(\r\n            Order(\r\n                nextOrderId,\r\n                msg.sender,\r\n                side,\r\n                ticker,\r\n                amount,\r\n                0,\r\n                price,\r\n                block.timestamp\r\n            )\r\n        );\r\n\r\n        uint256 i = orders.length > 0 ? orders.length - 1 : 0;\r\n        while (i > 0) {\r\n            if (side == Side.BUY && orders[i - 1].price > orders[i].price) {\r\n                break;\r\n            }\r\n            if (side == Side.SELL && orders[i - 1].price < orders[i].price) {\r\n                break;\r\n            }\r\n            Order memory order = orders[i - 1];\r\n            orders[i - 1] = orders[i];\r\n            orders[i] = order;\r\n            i = i.sub(1);\r\n        }\r\n        nextOrderId = nextOrderId.add(1);\r\n    }\r\n\r\n    function createMarketOrder(\r\n        bytes32 ticker,\r\n        uint256 amount,\r\n        Side side\r\n    ) external tokenExist(ticker) tokenIsNotDai(ticker) {\r\n        if (side == Side.SELL) {\r\n            require(\r\n                traderBalances[msg.sender][ticker] >= amount,\r\n                \"token balance too low\"\r\n            );\r\n        }\r\n        Order[] storage orders = orderBook[ticker][\r\n            uint256(side == Side.BUY ? Side.SELL : Side.BUY)\r\n        ];\r\n        uint256 i;\r\n        uint256 remaining = amount;\r\n\r\n        while (i < orders.length && remaining > 0) {\r\n            uint256 available = orders[i].amount.sub(orders[i].filled);\r\n            uint256 matched = (remaining > available) ? available : remaining;\r\n            remaining = remaining.sub(matched);\r\n            orders[i].filled = orders[i].filled.add(matched);\r\n            emit NewTrade(\r\n                nextTradeId,\r\n                orders[i].id,\r\n                ticker,\r\n                orders[i].trader,\r\n                msg.sender,\r\n                matched,\r\n                orders[i].price,\r\n                block.timestamp\r\n            );\r\n            if (side == Side.SELL) {\r\n                traderBalances[msg.sender][ticker] = traderBalances[msg.sender][\r\n                    ticker\r\n                ].sub(matched);\r\n                traderBalances[msg.sender][DAI] = traderBalances[msg.sender][\r\n                    DAI\r\n                ].add(matched.mul(orders[i].price));\r\n                traderBalances[orders[i].trader][ticker] = traderBalances[\r\n                    orders[i].trader\r\n                ][ticker].add(matched);\r\n                traderBalances[orders[i].trader][DAI] = traderBalances[\r\n                    orders[i].trader\r\n                ][DAI].sub(matched.mul(orders[i].price));\r\n            }\r\n            if (side == Side.BUY) {\r\n                require(\r\n                    traderBalances[msg.sender][DAI] >=\r\n                        matched.mul(orders[i].price),\r\n                    \"dai balance too low\"\r\n                );\r\n                traderBalances[msg.sender][ticker] = traderBalances[msg.sender][\r\n                    ticker\r\n                ].add(matched);\r\n                traderBalances[msg.sender][DAI] = traderBalances[msg.sender][\r\n                    DAI\r\n                ].sub(matched.mul(orders[i].price));\r\n                traderBalances[orders[i].trader][ticker] = traderBalances[\r\n                    orders[i].trader\r\n                ][ticker].sub(matched);\r\n                traderBalances[orders[i].trader][DAI] = traderBalances[\r\n                    orders[i].trader\r\n                ][DAI].add(matched.mul(orders[i].price));\r\n            }\r\n            nextTradeId = nextTradeId.add(1);\r\n            i = i.add(1);\r\n        }\r\n\r\n        i = 0;\r\n        while (i < orders.length && orders[i].filled == orders[i].amount) {\r\n            for (uint256 j = i; j < orders.length - 1; j++) {\r\n                orders[j] = orders[j + 1];\r\n            }\r\n            orders.pop();\r\n            i = i.add(1);\r\n        }\r\n    }\r\n\r\n    function getOrders(bytes32 ticker, Side side)\r\n        external\r\n        view\r\n        returns (Order[] memory)\r\n    {\r\n        return orderBook[ticker][uint256(side)];\r\n    }\r\n\r\n    function getTokens() external view returns (Token[] memory) {\r\n        Token[] memory _tokens = new Token[](tokenList.length);\r\n        for (uint256 i = 0; i < tokenList.length; i++) {\r\n            _tokens[i] = Token(\r\n                tokens[tokenList[i]].ticker,\r\n                tokens[tokenList[i]].tokenAddress\r\n            );\r\n        }\r\n        return _tokens;\r\n    }\r\n\r\n    modifier tokenExist(bytes32 ticker) {\r\n        require(\r\n            tokens[ticker].tokenAddress != address(0),\r\n            \"this token does not exist\"\r\n        );\r\n        _;\r\n    }\r\n\r\n    modifier onlyAdmin() {\r\n        require(msg.sender == admin, \"only admin\");\r\n        _;\r\n    }\r\n\r\n    modifier tokenIsNotDai(bytes32 ticker) {\r\n        require(ticker != DAI, \"cannot trade DAI\");\r\n        _;\r\n    }\r\n}\r\n",
  "sourcePath": "C:\\Users\\nicol\\Desktop\\Development\\dex\\Dex\\contracts\\Dex.sol",
  "compiler": {
    "name": "solc",
    "version": "0.8.9+commit.e5eed63a.Emscripten.clang"
  },
  "schemaVersion": "3.4.3",
  "updatedAt": "2021-11-28T16:24:53.143Z",
  "networkType": "ethereum",
  "devdoc": {
    "kind": "dev",
    "methods": {},
    "version": 1
  },
  "userdoc": {
    "kind": "user",
    "methods": {},
    "version": 1
  }
}